{
  "contractName": "Access_Control",
  "abi": [
    {
      "inputs": [],
      "payable": false,
      "stateMutability": "nonpayable",
      "type": "constructor"
    },
    {
      "anonymous": false,
      "inputs": [
        {
          "indexed": false,
          "internalType": "address",
          "name": "sender",
          "type": "address"
        },
        {
          "indexed": false,
          "internalType": "address",
          "name": "userAddress",
          "type": "address"
        },
        {
          "indexed": false,
          "internalType": "string",
          "name": "message",
          "type": "string"
        }
      ],
      "name": "AccessDenied",
      "type": "event"
    },
    {
      "anonymous": false,
      "inputs": [
        {
          "indexed": false,
          "internalType": "address",
          "name": "userAddress",
          "type": "address"
        },
        {
          "components": [
            {
              "internalType": "string",
              "name": "docname",
              "type": "string"
            },
            {
              "internalType": "string",
              "name": "ipfshash",
              "type": "string"
            },
            {
              "internalType": "string",
              "name": "docID",
              "type": "string"
            },
            {
              "internalType": "string",
              "name": "symmkey",
              "type": "string"
            }
          ],
          "indexed": false,
          "internalType": "struct Access_Control.Document",
          "name": "document",
          "type": "tuple"
        }
      ],
      "name": "DocumentAccessed",
      "type": "event"
    },
    {
      "anonymous": false,
      "inputs": [
        {
          "indexed": false,
          "internalType": "address",
          "name": "sender",
          "type": "address"
        },
        {
          "indexed": false,
          "internalType": "address",
          "name": "userAddress",
          "type": "address"
        },
        {
          "indexed": false,
          "internalType": "string",
          "name": "docname",
          "type": "string"
        },
        {
          "indexed": false,
          "internalType": "string",
          "name": "ipfshash",
          "type": "string"
        },
        {
          "indexed": false,
          "internalType": "string",
          "name": "docID",
          "type": "string"
        }
      ],
      "name": "DocumentAdded",
      "type": "event"
    },
    {
      "anonymous": false,
      "inputs": [
        {
          "indexed": false,
          "internalType": "address",
          "name": "userAdress",
          "type": "address"
        },
        {
          "indexed": false,
          "internalType": "string[]",
          "name": "docnames",
          "type": "string[]"
        }
      ],
      "name": "DocumentsListed",
      "type": "event"
    },
    {
      "anonymous": false,
      "inputs": [
        {
          "indexed": false,
          "internalType": "address",
          "name": "userAddress",
          "type": "address"
        },
        {
          "indexed": false,
          "internalType": "string",
          "name": "username",
          "type": "string"
        },
        {
          "indexed": false,
          "internalType": "string",
          "name": "userID",
          "type": "string"
        },
        {
          "indexed": false,
          "internalType": "bool",
          "name": "sender",
          "type": "bool"
        }
      ],
      "name": "UserAdded",
      "type": "event"
    },
    {
      "anonymous": false,
      "inputs": [
        {
          "indexed": false,
          "internalType": "address",
          "name": "userAddress",
          "type": "address"
        },
        {
          "indexed": false,
          "internalType": "bool",
          "name": "sender",
          "type": "bool"
        }
      ],
      "name": "UserDeleted",
      "type": "event"
    },
    {
      "constant": true,
      "inputs": [
        {
          "internalType": "address",
          "name": "",
          "type": "address"
        },
        {
          "internalType": "uint256",
          "name": "",
          "type": "uint256"
        }
      ],
      "name": "docAccessList",
      "outputs": [
        {
          "internalType": "string",
          "name": "docname",
          "type": "string"
        },
        {
          "internalType": "string",
          "name": "ipfshash",
          "type": "string"
        },
        {
          "internalType": "string",
          "name": "docID",
          "type": "string"
        },
        {
          "internalType": "string",
          "name": "symmkey",
          "type": "string"
        }
      ],
      "payable": false,
      "stateMutability": "view",
      "type": "function"
    },
    {
      "constant": true,
      "inputs": [
        {
          "internalType": "address",
          "name": "",
          "type": "address"
        }
      ],
      "name": "isUserRegistered",
      "outputs": [
        {
          "internalType": "bool",
          "name": "",
          "type": "bool"
        }
      ],
      "payable": false,
      "stateMutability": "view",
      "type": "function"
    },
    {
      "constant": true,
      "inputs": [],
      "name": "owner",
      "outputs": [
        {
          "internalType": "address",
          "name": "",
          "type": "address"
        }
      ],
      "payable": false,
      "stateMutability": "view",
      "type": "function"
    },
    {
      "constant": true,
      "inputs": [
        {
          "internalType": "address",
          "name": "",
          "type": "address"
        }
      ],
      "name": "publickey",
      "outputs": [
        {
          "internalType": "string",
          "name": "",
          "type": "string"
        }
      ],
      "payable": false,
      "stateMutability": "view",
      "type": "function"
    },
    {
      "constant": true,
      "inputs": [
        {
          "internalType": "address",
          "name": "",
          "type": "address"
        }
      ],
      "name": "receiverList",
      "outputs": [
        {
          "internalType": "string",
          "name": "username",
          "type": "string"
        },
        {
          "internalType": "string",
          "name": "userID",
          "type": "string"
        },
        {
          "internalType": "address",
          "name": "useraddress",
          "type": "address"
        }
      ],
      "payable": false,
      "stateMutability": "view",
      "type": "function"
    },
    {
      "constant": true,
      "inputs": [
        {
          "internalType": "address",
          "name": "",
          "type": "address"
        }
      ],
      "name": "senderList",
      "outputs": [
        {
          "internalType": "string",
          "name": "username",
          "type": "string"
        },
        {
          "internalType": "string",
          "name": "userID",
          "type": "string"
        },
        {
          "internalType": "address",
          "name": "useraddress",
          "type": "address"
        }
      ],
      "payable": false,
      "stateMutability": "view",
      "type": "function"
    },
    {
      "constant": true,
      "inputs": [
        {
          "internalType": "string",
          "name": "",
          "type": "string"
        }
      ],
      "name": "userFromNameMap",
      "outputs": [
        {
          "internalType": "string",
          "name": "username",
          "type": "string"
        },
        {
          "internalType": "string",
          "name": "userID",
          "type": "string"
        },
        {
          "internalType": "address",
          "name": "useraddress",
          "type": "address"
        }
      ],
      "payable": false,
      "stateMutability": "view",
      "type": "function"
    },
    {
      "constant": true,
      "inputs": [
        {
          "internalType": "address",
          "name": "",
          "type": "address"
        }
      ],
      "name": "userPhoneHashes",
      "outputs": [
        {
          "internalType": "bytes32",
          "name": "",
          "type": "bytes32"
        }
      ],
      "payable": false,
      "stateMutability": "view",
      "type": "function"
    },
    {
      "constant": false,
      "inputs": [
        {
          "internalType": "string",
          "name": "_publicKey",
          "type": "string"
        }
      ],
      "name": "registerPublicKey",
      "outputs": [],
      "payable": false,
      "stateMutability": "nonpayable",
      "type": "function"
    },
    {
      "constant": true,
      "inputs": [
        {
          "internalType": "address",
          "name": "_add",
          "type": "address"
        }
      ],
      "name": "getuserList",
      "outputs": [
        {
          "internalType": "string",
          "name": "",
          "type": "string"
        },
        {
          "internalType": "string",
          "name": "",
          "type": "string"
        }
      ],
      "payable": false,
      "stateMutability": "view",
      "type": "function"
    },
    {
      "constant": false,
      "inputs": [
        {
          "internalType": "bytes32",
          "name": "phoneHash",
          "type": "bytes32"
        }
      ],
      "name": "registerPhoneNumber",
      "outputs": [],
      "payable": false,
      "stateMutability": "nonpayable",
      "type": "function"
    },
    {
      "constant": true,
      "inputs": [
        {
          "internalType": "bytes32",
          "name": "phoneHash",
          "type": "bytes32"
        }
      ],
      "name": "verifyPhoneNumber",
      "outputs": [
        {
          "internalType": "bool",
          "name": "",
          "type": "bool"
        }
      ],
      "payable": false,
      "stateMutability": "view",
      "type": "function"
    },
    {
      "constant": false,
      "inputs": [
        {
          "internalType": "address",
          "name": "_userAddress",
          "type": "address"
        },
        {
          "internalType": "string",
          "name": "_username",
          "type": "string"
        },
        {
          "internalType": "string",
          "name": "_userID",
          "type": "string"
        },
        {
          "internalType": "bool",
          "name": "sender",
          "type": "bool"
        }
      ],
      "name": "addUser",
      "outputs": [],
      "payable": false,
      "stateMutability": "nonpayable",
      "type": "function"
    },
    {
      "constant": false,
      "inputs": [
        {
          "internalType": "address",
          "name": "_userAddress",
          "type": "address"
        },
        {
          "internalType": "bool",
          "name": "sender",
          "type": "bool"
        }
      ],
      "name": "deleteUser",
      "outputs": [],
      "payable": false,
      "stateMutability": "nonpayable",
      "type": "function"
    },
    {
      "constant": true,
      "inputs": [
        {
          "internalType": "address",
          "name": "_userAddress",
          "type": "address"
        },
        {
          "internalType": "string",
          "name": "_username",
          "type": "string"
        },
        {
          "internalType": "string",
          "name": "_userID",
          "type": "string"
        }
      ],
      "name": "verifyUser",
      "outputs": [
        {
          "internalType": "uint8",
          "name": "",
          "type": "uint8"
        }
      ],
      "payable": false,
      "stateMutability": "view",
      "type": "function"
    },
    {
      "constant": false,
      "inputs": [
        {
          "internalType": "string",
          "name": "_docname",
          "type": "string"
        },
        {
          "internalType": "string",
          "name": "_ipfshash",
          "type": "string"
        },
        {
          "internalType": "string",
          "name": "_docID",
          "type": "string"
        },
        {
          "internalType": "address",
          "name": "_userAddress",
          "type": "address"
        },
        {
          "internalType": "string",
          "name": "_symmkey",
          "type": "string"
        }
      ],
      "name": "addDocument",
      "outputs": [],
      "payable": false,
      "stateMutability": "nonpayable",
      "type": "function"
    },
    {
      "constant": true,
      "inputs": [
        {
          "internalType": "address",
          "name": "_userAddress",
          "type": "address"
        }
      ],
      "name": "getDocCount",
      "outputs": [
        {
          "internalType": "uint256",
          "name": "",
          "type": "uint256"
        }
      ],
      "payable": false,
      "stateMutability": "view",
      "type": "function"
    },
    {
      "constant": false,
      "inputs": [
        {
          "internalType": "address",
          "name": "_userAddress",
          "type": "address"
        }
      ],
      "name": "getDocuments",
      "outputs": [
        {
          "internalType": "string[]",
          "name": "",
          "type": "string[]"
        }
      ],
      "payable": false,
      "stateMutability": "nonpayable",
      "type": "function"
    },
    {
      "constant": false,
      "inputs": [
        {
          "internalType": "address",
          "name": "_userAddress",
          "type": "address"
        },
        {
          "internalType": "string",
          "name": "_docname",
          "type": "string"
        }
      ],
      "name": "getDocumentFromDocname",
      "outputs": [
        {
          "components": [
            {
              "internalType": "string",
              "name": "docname",
              "type": "string"
            },
            {
              "internalType": "string",
              "name": "ipfshash",
              "type": "string"
            },
            {
              "internalType": "string",
              "name": "docID",
              "type": "string"
            },
            {
              "internalType": "string",
              "name": "symmkey",
              "type": "string"
            }
          ],
          "internalType": "struct Access_Control.Document",
          "name": "",
          "type": "tuple"
        }
      ],
      "payable": false,
      "stateMutability": "nonpayable",
      "type": "function"
    }
  ],
  "bytecode": "0x608060405234801561001057600080fd5b5033600760006101000a81548173ffffffffffffffffffffffffffffffffffffffff021916908373ffffffffffffffffffffffffffffffffffffffff1602179055506138a6806100616000396000f3fe608060405234801561001057600080fd5b50600436106101215760003560e01c806387bc9fad116100ad578063ab7cc52f11610071578063ab7cc52f14610394578063c6f4771a146103c6578063f0a6130c146103e2578063f1de7ec814610412578063f590b65f1461042e57610121565b806387bc9fad146102c65780638d3e5f2d146102e25780638da5cb5b14610314578063908c8e7c146103325780639cd4cf021461036257610121565b806327f50a2d116100f457806327f50a2d146101e7578063412b294b146102175780634deeea631461024a5780636884839d1461026657806378c188c51461029657610121565b806305b4b43114610126578063163f7522146101565780631c73d3b21461018657806321c7f28c146101b6575b600080fd5b610140600480360361013b91908101906128a3565b61044a565b60405161014d91906135b1565b60405180910390f35b610170600480360361016b919081019061283e565b6108dc565b60405161017d919061337c565b60405180910390f35b6101a0600480360361019b919081019061283e565b6108fc565b6040516101ad91906135d3565b60405180910390f35b6101d060048036036101cb919081019061283e565b610948565b6040516101de9291906133d4565b60405180910390f35b61020160048036036101fc919081019061283e565b610b9e565b60405161020e919061335a565b60405180910390f35b610231600480360361022c9190810190612a09565b610e37565b6040516102419493929190613450565b60405180910390f35b610264600480360361025f9190810190612a45565b6110e1565b005b610280600480360361027b919081019061283e565b61120d565b60405161028d91906133b2565b60405180910390f35b6102b060048036036102ab91908101906128f7565b6112bd565b6040516102bd91906135ee565b60405180910390f35b6102e060048036036102db9190810190612867565b61162f565b005b6102fc60048036036102f7919081019061283e565b6119c5565b60405161030b9392919061340b565b60405180910390f35b61031c611b3f565b60405161032991906131bf565b60405180910390f35b61034c60048036036103479190810190612a45565b611b65565b604051610359919061337c565b60405180910390f35b61037c6004803603610377919081019061283e565b611bb0565b60405161038b9392919061340b565b60405180910390f35b6103ae60048036036103a99190810190612a6e565b611d2a565b6040516103bd9392919061340b565b60405180910390f35b6103e060048036036103db9190810190612af0565b611eba565b005b6103fc60048036036103f7919081019061283e565b6120a9565b6040516104099190613397565b60405180910390f35b61042c60048036036104279190810190612976565b6120c1565b005b61044860048036036104439190810190612aaf565b61251f565b005b610452612576565b8273ffffffffffffffffffffffffffffffffffffffff163373ffffffffffffffffffffffffffffffffffffffff16146104c0576040517f08c379a00000000000000000000000000000000000000000000000000000000081526004016104b7906134f1565b60405180910390fd5b6000600460008573ffffffffffffffffffffffffffffffffffffffff1673ffffffffffffffffffffffffffffffffffffffff168152602001908152602001600020905060008090505b818054905081101561089a57836040516020016105269190613191565b6040516020818303038152906040528051906020012082828154811061054857fe5b906000526020600020906004020160000160405160200161056991906131a8565b60405160208183030381529060405280519060200120141561088d577f69c184361ac45822d4bf615c0fe1e1c4a8be0bdc5cbd23d1efca00db485f1630858383815481106105b357fe5b90600052602060002090600402016040516105cf92919061332a565b60405180910390a18181815481106105e357fe5b9060005260206000209060040201604051806080016040529081600082018054600181600116156101000203166002900480601f0160208091040260200160405190810160405280929190818152602001828054600181600116156101000203166002900480156106955780601f1061066a57610100808354040283529160200191610695565b820191906000526020600020905b81548152906001019060200180831161067857829003601f168201915b50505050508152602001600182018054600181600116156101000203166002900480601f0160208091040260200160405190810160405280929190818152602001828054600181600116156101000203166002900480156107375780601f1061070c57610100808354040283529160200191610737565b820191906000526020600020905b81548152906001019060200180831161071a57829003601f168201915b50505050508152602001600282018054600181600116156101000203166002900480601f0160208091040260200160405190810160405280929190818152602001828054600181600116156101000203166002900480156107d95780601f106107ae576101008083540402835291602001916107d9565b820191906000526020600020905b8154815290600101906020018083116107bc57829003601f168201915b50505050508152602001600382018054600181600116156101000203166002900480601f01602080910402602001604051908101604052809291908181526020018280546001816001161561010002031660029004801561087b5780601f106108505761010080835404028352916020019161087b565b820191906000526020600020905b81548152906001019060200180831161085e57829003601f168201915b505050505081525050925050506108d6565b8080600101915050610509565b506040517f08c379a00000000000000000000000000000000000000000000000000000000081526004016108cd90613531565b60405180910390fd5b92915050565b60066020528060005260406000206000915054906101000a900460ff1681565b6000600460008373ffffffffffffffffffffffffffffffffffffffff1673ffffffffffffffffffffffffffffffffffffffff168152602001908152602001600020805490509050919050565b606080600760009054906101000a900473ffffffffffffffffffffffffffffffffffffffff1673ffffffffffffffffffffffffffffffffffffffff163373ffffffffffffffffffffffffffffffffffffffff16146109db576040517f08c379a00000000000000000000000000000000000000000000000000000000081526004016109d2906134b1565b60405180910390fd5b6000808473ffffffffffffffffffffffffffffffffffffffff1673ffffffffffffffffffffffffffffffffffffffff1681526020019081526020016000206000016000808573ffffffffffffffffffffffffffffffffffffffff1673ffffffffffffffffffffffffffffffffffffffff168152602001908152602001600020600101818054600181600116156101000203166002900480601f016020809104026020016040519081016040528092919081815260200182805460018160011615610100020316600290048015610af25780601f10610ac757610100808354040283529160200191610af2565b820191906000526020600020905b815481529060010190602001808311610ad557829003601f168201915b50505050509150808054600181600116156101000203166002900480601f016020809104026020016040519081016040528092919081815260200182805460018160011615610100020316600290048015610b8e5780601f10610b6357610100808354040283529160200191610b8e565b820191906000526020600020905b815481529060010190602001808311610b7157829003601f168201915b5050505050905091509150915091565b60608173ffffffffffffffffffffffffffffffffffffffff163373ffffffffffffffffffffffffffffffffffffffff1614610c47577fb9698efb07b9cc58cbbd5d8cd256f2cf3eeeba0f314c12fbc31928fab34dc9803383604051610c04929190613242565b60405180910390a16040517f08c379a0000000000000000000000000000000000000000000000000000000008152600401610c3e906134f1565b60405180910390fd5b6000600460008473ffffffffffffffffffffffffffffffffffffffff1673ffffffffffffffffffffffffffffffffffffffff168152602001908152602001600020805490509050606081604051908082528060200260200182016040528015610cc457816020015b6060815260200190600190039081610caf5790505b50905060008090505b82811015610df3576000600460008773ffffffffffffffffffffffffffffffffffffffff1673ffffffffffffffffffffffffffffffffffffffff1681526020019081526020016000208281548110610d2157fe5b90600052602060002090600402019050806000018054600181600116156101000203166002900480601f016020809104026020016040519081016040528092919081815260200182805460018160011615610100020316600290048015610dc95780601f10610d9e57610100808354040283529160200191610dc9565b820191906000526020600020905b815481529060010190602001808311610dac57829003601f168201915b5050505050838381518110610dda57fe5b6020026020010181905250508080600101915050610ccd565b507fce1e70ee2e917ed1134ca1510b3e71d2056186c5ae4b026a865e90b3812ce4d28482604051610e2592919061327e565b60405180910390a18092505050919050565b60046020528160005260406000208181548110610e5057fe5b906000526020600020906004020160009150915050806000018054600181600116156101000203166002900480601f016020809104026020016040519081016040528092919081815260200182805460018160011615610100020316600290048015610efd5780601f10610ed257610100808354040283529160200191610efd565b820191906000526020600020905b815481529060010190602001808311610ee057829003601f168201915b505050505090806001018054600181600116156101000203166002900480601f016020809104026020016040519081016040528092919081815260200182805460018160011615610100020316600290048015610f9b5780601f10610f7057610100808354040283529160200191610f9b565b820191906000526020600020905b815481529060010190602001808311610f7e57829003601f168201915b505050505090806002018054600181600116156101000203166002900480601f0160208091040260200160405190810160405280929190818152602001828054600181600116156101000203166002900480156110395780601f1061100e57610100808354040283529160200191611039565b820191906000526020600020905b81548152906001019060200180831161101c57829003601f168201915b505050505090806003018054600181600116156101000203166002900480601f0160208091040260200160405190810160405280929190818152602001828054600181600116156101000203166002900480156110d75780601f106110ac576101008083540402835291602001916110d7565b820191906000526020600020905b8154815290600101906020018083116110ba57829003601f168201915b5050505050905084565b600660003373ffffffffffffffffffffffffffffffffffffffff1673ffffffffffffffffffffffffffffffffffffffff16815260200190815260200160002060009054906101000a900460ff161561116e576040517f08c379a000000000000000000000000000000000000000000000000000000000815260040161116590613551565b60405180910390fd5b80600560003373ffffffffffffffffffffffffffffffffffffffff1673ffffffffffffffffffffffffffffffffffffffff168152602001908152602001600020819055506001600660003373ffffffffffffffffffffffffffffffffffffffff1673ffffffffffffffffffffffffffffffffffffffff16815260200190815260200160002060006101000a81548160ff02191690831515021790555050565b60036020528060005260406000206000915090508054600181600116156101000203166002900480601f0160208091040260200160405190810160405280929190818152602001828054600181600116156101000203166002900480156112b55780601f1061128a576101008083540402835291602001916112b5565b820191906000526020600020905b81548152906001019060200180831161129857829003601f168201915b505050505081565b6000806000808673ffffffffffffffffffffffffffffffffffffffff1673ffffffffffffffffffffffffffffffffffffffff16815260200190815260200160002060000180546001816001161561010002031660029004905014158061137a57506000600160008673ffffffffffffffffffffffffffffffffffffffff1673ffffffffffffffffffffffffffffffffffffffff16815260200190815260200160002060000180546001816001161561010002031660029004905014155b6113b9576040517f08c379a00000000000000000000000000000000000000000000000000000000081526004016113b090613571565b60405180910390fd5b826040516020016113ca9190613191565b604051602081830303815290604052805190602001206000808673ffffffffffffffffffffffffffffffffffffffff1673ffffffffffffffffffffffffffffffffffffffff16815260200190815260200160002060000160405160200161143191906131a8565b604051602081830303815290604052805190602001201480156114df5750816040516020016114609190613191565b604051602081830303815290604052805190602001206000808673ffffffffffffffffffffffffffffffffffffffff1673ffffffffffffffffffffffffffffffffffffffff1681526020019081526020016000206001016040516020016114c791906131a8565b60405160208183030381529060405280519060200120145b156114ed5760029050611628565b826040516020016114fe9190613191565b60405160208183030381529060405280519060200120600160008673ffffffffffffffffffffffffffffffffffffffff1673ffffffffffffffffffffffffffffffffffffffff16815260200190815260200160002060000160405160200161156691906131a8565b604051602081830303815290604052805190602001201480156116155750816040516020016115959190613191565b60405160208183030381529060405280519060200120600160008673ffffffffffffffffffffffffffffffffffffffff1673ffffffffffffffffffffffffffffffffffffffff1681526020019081526020016000206001016040516020016115fd91906131a8565b60405160208183030381529060405280519060200120145b156116235760019050611628565b600090505b9392505050565b600760009054906101000a900473ffffffffffffffffffffffffffffffffffffffff1673ffffffffffffffffffffffffffffffffffffffff163373ffffffffffffffffffffffffffffffffffffffff16146116bf576040517f08c379a00000000000000000000000000000000000000000000000000000000081526004016116b6906134b1565b60405180910390fd5b80801561172357506000600160008473ffffffffffffffffffffffffffffffffffffffff1673ffffffffffffffffffffffffffffffffffffffff16815260200190815260200160002060000180546001816001161561010002031660029004905014155b80611784575060008060008473ffffffffffffffffffffffffffffffffffffffff1673ffffffffffffffffffffffffffffffffffffffff16815260200190815260200160002060000180546001816001161561010002031660029004905014155b6117c3576040517f08c379a00000000000000000000000000000000000000000000000000000000081526004016117ba906134d1565b60405180910390fd5b801561185757600160008373ffffffffffffffffffffffffffffffffffffffff1673ffffffffffffffffffffffffffffffffffffffff16815260200190815260200160002060008082016000611819919061259e565b600182016000611829919061259e565b6002820160006101000a81549073ffffffffffffffffffffffffffffffffffffffff02191690555050611988565b60026000808473ffffffffffffffffffffffffffffffffffffffff1673ffffffffffffffffffffffffffffffffffffffff1681526020019081526020016000206000016040516118a791906131a8565b9081526020016040518091039020600080820160006118c6919061259e565b6001820160006118d6919061259e565b6002820160006101000a81549073ffffffffffffffffffffffffffffffffffffffff021916905550506000808373ffffffffffffffffffffffffffffffffffffffff1673ffffffffffffffffffffffffffffffffffffffff1681526020019081526020016000206000808201600061194e919061259e565b60018201600061195e919061259e565b6002820160006101000a81549073ffffffffffffffffffffffffffffffffffffffff021916905550505b7f84575b21619a9ae6ef391477f1017be60323335aabaf95dc8daaca2b97ff6f2982826040516119b99291906132ae565b60405180910390a15050565b6001602052806000526040600020600091509050806000018054600181600116156101000203166002900480601f016020809104026020016040519081016040528092919081815260200182805460018160011615610100020316600290048015611a715780601f10611a4657610100808354040283529160200191611a71565b820191906000526020600020905b815481529060010190602001808311611a5457829003601f168201915b505050505090806001018054600181600116156101000203166002900480601f016020809104026020016040519081016040528092919081815260200182805460018160011615610100020316600290048015611b0f5780601f10611ae457610100808354040283529160200191611b0f565b820191906000526020600020905b815481529060010190602001808311611af257829003601f168201915b5050505050908060020160009054906101000a900473ffffffffffffffffffffffffffffffffffffffff16905083565b600760009054906101000a900473ffffffffffffffffffffffffffffffffffffffff1681565b600081600560003373ffffffffffffffffffffffffffffffffffffffff1673ffffffffffffffffffffffffffffffffffffffff16815260200190815260200160002054149050919050565b6000602052806000526040600020600091509050806000018054600181600116156101000203166002900480601f016020809104026020016040519081016040528092919081815260200182805460018160011615610100020316600290048015611c5c5780601f10611c3157610100808354040283529160200191611c5c565b820191906000526020600020905b815481529060010190602001808311611c3f57829003601f168201915b505050505090806001018054600181600116156101000203166002900480601f016020809104026020016040519081016040528092919081815260200182805460018160011615610100020316600290048015611cfa5780601f10611ccf57610100808354040283529160200191611cfa565b820191906000526020600020905b815481529060010190602001808311611cdd57829003601f168201915b5050505050908060020160009054906101000a900473ffffffffffffffffffffffffffffffffffffffff16905083565b600281805160208101820180518482526020830160208501208183528095505050505050600091509050806000018054600181600116156101000203166002900480601f016020809104026020016040519081016040528092919081815260200182805460018160011615610100020316600290048015611dec5780601f10611dc157610100808354040283529160200191611dec565b820191906000526020600020905b815481529060010190602001808311611dcf57829003601f168201915b505050505090806001018054600181600116156101000203166002900480601f016020809104026020016040519081016040528092919081815260200182805460018160011615610100020316600290048015611e8a5780601f10611e5f57610100808354040283529160200191611e8a565b820191906000526020600020905b815481529060010190602001808311611e6d57829003601f168201915b5050505050908060020160009054906101000a900473ffffffffffffffffffffffffffffffffffffffff16905083565b6000600160003373ffffffffffffffffffffffffffffffffffffffff1673ffffffffffffffffffffffffffffffffffffffff1681526020019081526020016000206000018054600181600116156101000203166002900490501415611f54576040517f08c379a0000000000000000000000000000000000000000000000000000000008152600401611f4b90613591565b60405180910390fd5b611f5c612576565b858160000181905250848160200181905250838160400181905250818160600181905250600460008473ffffffffffffffffffffffffffffffffffffffff1673ffffffffffffffffffffffffffffffffffffffff168152602001908152602001600020819080600181540180825580915050906001820390600052602060002090600402016000909192909190915060008201518160000190805190602001906120079291906125e6565b5060208201518160010190805190602001906120249291906125e6565b5060408201518160020190805190602001906120419291906125e6565b50606082015181600301908051906020019061205e9291906125e6565b505050507f15318dcc2c09f5f472e35eea1902d60d65b9fd2852ec52e1e7719e18677466f933848888886040516120999594939291906131da565b60405180910390a1505050505050565b60056020528060005260406000206000915090505481565b600760009054906101000a900473ffffffffffffffffffffffffffffffffffffffff1673ffffffffffffffffffffffffffffffffffffffff163373ffffffffffffffffffffffffffffffffffffffff1614612151576040517f08c379a0000000000000000000000000000000000000000000000000000000008152600401612148906134b1565b60405180910390fd5b8080156121b457506000600160008673ffffffffffffffffffffffffffffffffffffffff1673ffffffffffffffffffffffffffffffffffffffff168152602001908152602001600020600001805460018160011615610100020316600290049050145b80612214575060008060008673ffffffffffffffffffffffffffffffffffffffff1673ffffffffffffffffffffffffffffffffffffffff168152602001908152602001600020600001805460018160011615610100020316600290049050145b612253576040517f08c379a000000000000000000000000000000000000000000000000000000000815260040161224a90613511565b60405180910390fd5b61225b612666565b83816000018190525082816020018190525084816040019073ffffffffffffffffffffffffffffffffffffffff16908173ffffffffffffffffffffffffffffffffffffffff168152505081156123745780600160008773ffffffffffffffffffffffffffffffffffffffff1673ffffffffffffffffffffffffffffffffffffffff16815260200190815260200160002060008201518160000190805190602001906123079291906125e6565b5060208201518160010190805190602001906123249291906125e6565b5060408201518160020160006101000a81548173ffffffffffffffffffffffffffffffffffffffff021916908373ffffffffffffffffffffffffffffffffffffffff1602179055509050506124db565b806002856040516123859190613191565b908152602001604051809103902060008201518160000190805190602001906123af9291906125e6565b5060208201518160010190805190602001906123cc9291906125e6565b5060408201518160020160006101000a81548173ffffffffffffffffffffffffffffffffffffffff021916908373ffffffffffffffffffffffffffffffffffffffff160217905550905050806000808773ffffffffffffffffffffffffffffffffffffffff1673ffffffffffffffffffffffffffffffffffffffff16815260200190815260200160002060008201518160000190805190602001906124729291906125e6565b50602082015181600101908051906020019061248f9291906125e6565b5060408201518160020160006101000a81548173ffffffffffffffffffffffffffffffffffffffff021916908373ffffffffffffffffffffffffffffffffffffffff1602179055509050505b7f99ea35f66439010500c59c9714f04ed5ce6e9dcc9e07bc1d3a3b779c1d73dfe68585858560405161251094939291906132d7565b60405180910390a15050505050565b80600360003373ffffffffffffffffffffffffffffffffffffffff1673ffffffffffffffffffffffffffffffffffffffff168152602001908152602001600020908051906020019061257292919061269d565b5050565b6040518060800160405280606081526020016060815260200160608152602001606081525090565b50805460018160011615610100020316600290046000825580601f106125c457506125e3565b601f0160209004906000526020600020908101906125e2919061271d565b5b50565b828054600181600116156101000203166002900490600052602060002090601f016020900481019282601f1061262757805160ff1916838001178555612655565b82800160010185558215612655579182015b82811115612654578251825591602001919060010190612639565b5b509050612662919061271d565b5090565b60405180606001604052806060815260200160608152602001600073ffffffffffffffffffffffffffffffffffffffff1681525090565b828054600181600116156101000203166002900490600052602060002090601f016020900481019282601f106126de57805160ff191683800117855561270c565b8280016001018555821561270c579182015b8281111561270b5782518255916020019190600101906126f0565b5b509050612719919061271d565b5090565b61273f91905b8082111561273b576000816000905550600101612723565b5090565b90565b60008135905061275181613807565b92915050565b6000813590506127668161381e565b92915050565b60008135905061277b81613835565b92915050565b600082601f83011261279257600080fd5b81356127a56127a082613636565b613609565b915080825260208301602083018583830111156127c157600080fd5b6127cc8382846137b4565b50505092915050565b600082601f8301126127e657600080fd5b81356127f96127f482613662565b613609565b9150808252602083016020830185838301111561281557600080fd5b6128208382846137b4565b50505092915050565b6000813590506128388161384c565b92915050565b60006020828403121561285057600080fd5b600061285e84828501612742565b91505092915050565b6000806040838503121561287a57600080fd5b600061288885828601612742565b925050602061289985828601612757565b9150509250929050565b600080604083850312156128b657600080fd5b60006128c485828601612742565b925050602083013567ffffffffffffffff8111156128e157600080fd5b6128ed858286016127d5565b9150509250929050565b60008060006060848603121561290c57600080fd5b600061291a86828701612742565b935050602084013567ffffffffffffffff81111561293757600080fd5b612943868287016127d5565b925050604084013567ffffffffffffffff81111561296057600080fd5b61296c868287016127d5565b9150509250925092565b6000806000806080858703121561298c57600080fd5b600061299a87828801612742565b945050602085013567ffffffffffffffff8111156129b757600080fd5b6129c3878288016127d5565b935050604085013567ffffffffffffffff8111156129e057600080fd5b6129ec878288016127d5565b92505060606129fd87828801612757565b91505092959194509250565b60008060408385031215612a1c57600080fd5b6000612a2a85828601612742565b9250506020612a3b85828601612829565b9150509250929050565b600060208284031215612a5757600080fd5b6000612a658482850161276c565b91505092915050565b600060208284031215612a8057600080fd5b600082013567ffffffffffffffff811115612a9a57600080fd5b612aa684828501612781565b91505092915050565b600060208284031215612ac157600080fd5b600082013567ffffffffffffffff811115612adb57600080fd5b612ae7848285016127d5565b91505092915050565b600080600080600060a08688031215612b0857600080fd5b600086013567ffffffffffffffff811115612b2257600080fd5b612b2e888289016127d5565b955050602086013567ffffffffffffffff811115612b4b57600080fd5b612b57888289016127d5565b945050604086013567ffffffffffffffff811115612b7457600080fd5b612b80888289016127d5565b9350506060612b9188828901612742565b925050608086013567ffffffffffffffff811115612bae57600080fd5b612bba888289016127d5565b9150509295509295909350565b6000612bd38383612cf6565b905092915050565b612be48161377e565b82525050565b612bf38161371f565b82525050565b6000612c04826136b3565b612c0e81856136e1565b935083602082028501612c208561368e565b8060005b85811015612c5c5784840389528151612c3d8582612bc7565b9450612c48836136d4565b925060208a01995050600181019050612c24565b50829750879550505050505092915050565b612c7781613731565b82525050565b612c868161373d565b82525050565b6000612c97826136c9565b612ca18185613703565b9350612cb18185602086016137c3565b612cba816137f6565b840191505092915050565b6000612cd0826136c9565b612cda8185613714565b9350612cea8185602086016137c3565b80840191505092915050565b6000612d01826136be565b612d0b81856136f2565b9350612d1b8185602086016137c3565b612d24816137f6565b840191505092915050565b6000612d3a826136be565b612d448185613703565b9350612d548185602086016137c3565b612d5d816137f6565b840191505092915050565b600081546001811660008114612d855760018114612dab57612def565b607f6002830416612d9681876136f2565b955060ff198316865260208601935050612def565b60028204612db981876136f2565b9550612dc48561369e565b60005b82811015612de657815481890152600182019150602081019050612dc7565b80880195505050505b505092915050565b600081546001811660008114612e145760018114612e3957612e7d565b607f6002830416612e258187613714565b955060ff1983168652808601935050612e7d565b60028204612e478187613714565b9550612e528561369e565b60005b82811015612e7457815481890152600182019150602081019050612e55565b82880195505050505b505092915050565b6000612e92601783613703565b91507f43616c6c6572206973206e6f7420746865206f776e65720000000000000000006000830152602082019050919050565b6000612ed2601a83613703565b91507f757365722f73656e64657220646f6573206e6f742065786973740000000000006000830152602082019050919050565b6000612f12601883613703565b91507f617474656d707420746f206163636573732064656e69656400000000000000006000830152602082019050919050565b6000612f52601a83613703565b91507f73656e6465722f7573657220616c7265616479206578697374730000000000006000830152602082019050919050565b6000612f92601583613703565b91507f446f63756d656e74204944206e6f7420666f756e6400000000000000000000006000830152602082019050919050565b6000612fd2601783613703565b91507f5573657220616c726561647920726567697374657265640000000000000000006000830152602082019050919050565b6000613012601383613703565b91507f5573657220646f6573206e6f74206578697374000000000000000000000000006000830152602082019050919050565b6000613052601a83613703565b91507f6163636f756e742075736564206973206e6f742073656e6465720000000000006000830152602082019050919050565b600060808301600083015184820360008601526130a28282612cf6565b915050602083015184820360208601526130bc8282612cf6565b915050604083015184820360408601526130d68282612cf6565b915050606083015184820360608601526130f08282612cf6565b9150508091505092915050565b6000608083016000808401858303600087015261311a8382612d68565b9250506001840185830360208701526131338382612d68565b92505060028401858303604087015261314c8382612d68565b9250506003840185830360608701526131658382612d68565b925050819250505092915050565b61317c81613767565b82525050565b61318b81613771565b82525050565b600061319d8284612cc5565b915081905092915050565b60006131b48284612df7565b915081905092915050565b60006020820190506131d46000830184612bea565b92915050565b600060a0820190506131ef6000830188612bdb565b6131fc6020830187612bea565b818103604083015261320e8186612c8c565b905081810360608301526132228185612c8c565b905081810360808301526132368184612c8c565b90509695505050505050565b60006060820190506132576000830185612bdb565b6132646020830184612bea565b818103604083015261327581612f05565b90509392505050565b60006040820190506132936000830185612bea565b81810360208301526132a58184612bf9565b90509392505050565b60006040820190506132c36000830185612bea565b6132d06020830184612c6e565b9392505050565b60006080820190506132ec6000830187612bea565b81810360208301526132fe8186612c8c565b905081810360408301526133128185612c8c565b90506133216060830184612c6e565b95945050505050565b600060408201905061333f6000830185612bea565b818103602083015261335181846130fd565b90509392505050565b600060208201905081810360008301526133748184612bf9565b905092915050565b60006020820190506133916000830184612c6e565b92915050565b60006020820190506133ac6000830184612c7d565b92915050565b600060208201905081810360008301526133cc8184612d2f565b905092915050565b600060408201905081810360008301526133ee8185612c8c565b905081810360208301526134028184612c8c565b90509392505050565b600060608201905081810360008301526134258186612d2f565b905081810360208301526134398185612d2f565b90506134486040830184612bea565b949350505050565b6000608082019050818103600083015261346a8187612d2f565b9050818103602083015261347e8186612d2f565b905081810360408301526134928185612d2f565b905081810360608301526134a68184612d2f565b905095945050505050565b600060208201905081810360008301526134ca81612e85565b9050919050565b600060208201905081810360008301526134ea81612ec5565b9050919050565b6000602082019050818103600083015261350a81612f05565b9050919050565b6000602082019050818103600083015261352a81612f45565b9050919050565b6000602082019050818103600083015261354a81612f85565b9050919050565b6000602082019050818103600083015261356a81612fc5565b9050919050565b6000602082019050818103600083015261358a81613005565b9050919050565b600060208201905081810360008301526135aa81613045565b9050919050565b600060208201905081810360008301526135cb8184613085565b905092915050565b60006020820190506135e86000830184613173565b92915050565b60006020820190506136036000830184613182565b92915050565b6000604051905081810181811067ffffffffffffffff8211171561362c57600080fd5b8060405250919050565b600067ffffffffffffffff82111561364d57600080fd5b601f19601f8301169050602081019050919050565b600067ffffffffffffffff82111561367957600080fd5b601f19601f8301169050602081019050919050565b6000819050602082019050919050565b60008190508160005260206000209050919050565b600081519050919050565b600081519050919050565b600081519050919050565b6000602082019050919050565b600082825260208201905092915050565b600082825260208201905092915050565b600082825260208201905092915050565b600081905092915050565b600061372a82613747565b9050919050565b60008115159050919050565b6000819050919050565b600073ffffffffffffffffffffffffffffffffffffffff82169050919050565b6000819050919050565b600060ff82169050919050565b600061378982613790565b9050919050565b600061379b826137a2565b9050919050565b60006137ad82613747565b9050919050565b82818337600083830152505050565b60005b838110156137e15780820151818401526020810190506137c6565b838111156137f0576000848401525b50505050565b6000601f19601f8301169050919050565b6138108161371f565b811461381b57600080fd5b50565b61382781613731565b811461383257600080fd5b50565b61383e8161373d565b811461384957600080fd5b50565b61385581613767565b811461386057600080fd5b5056fea365627a7a723158207eca3d7c763322f8c6c7ffce7d1b4fa6dde16a3f869beb9fe082d5fdb109881c6c6578706572696d656e74616cf564736f6c63430005100040",
  "source": "pragma solidity ^0.5.16;\r\npragma experimental ABIEncoderV2;\r\n\r\ncontract Access_Control {\r\n    struct User {\r\n        string username;\r\n        string userID;\r\n        address useraddress;\r\n    }\r\n\r\n    struct Document {\r\n        string docname;\r\n        string ipfshash;\r\n        string docID;\r\n        string symmkey;\r\n    }\r\n    \r\n    mapping(address => User) public receiverList;\r\n    mapping(address => User) public senderList;\r\n    mapping(string => User) public userFromNameMap;\r\n    mapping(address=> string) public publickey;\r\n    mapping(address => Document[]) public docAccessList;\r\n    mapping(address => bytes32) public userPhoneHashes;\r\n    mapping(address => bool) public isUserRegistered;\r\n    address public owner;\r\n\r\n    constructor() public {\r\n        owner = msg.sender;\r\n    }\r\n\r\n    modifier onlyOwner() {\r\n        require(msg.sender == owner, \"Caller is not the owner\");\r\n        _;\r\n    }\r\n\r\n    event UserAdded(address userAddress, string username, string userID, bool sender);\r\n    event UserDeleted(address userAddress, bool sender);\r\n    event DocumentAdded(address sender, address userAddress, string docname, string ipfshash, string docID);\r\n    event DocumentAccessed(address userAddress, Document document);\r\n    //event DocumentAccessedHash(address userAddress, string dochash);\r\n    event DocumentsListed(address userAdress, string[] docnames);\r\n    event AccessDenied(address sender, address userAddress, string message);\r\n\r\n    function registerPublicKey(string memory _publicKey) public {\r\n        publickey[msg.sender] = _publicKey;\r\n    }\r\n\r\n    function getuserList(address _add) public view onlyOwner returns (string memory, string memory) {\r\n        return (receiverList[_add].username, receiverList[_add].userID);\r\n    }\r\n\r\n    function registerPhoneNumber(bytes32 phoneHash) public {\r\n        require(!isUserRegistered[msg.sender], \"User already registered\");\r\n        userPhoneHashes[msg.sender] = phoneHash;\r\n        isUserRegistered[msg.sender] = true;\r\n    }\r\n\r\n    function verifyPhoneNumber(bytes32 phoneHash) public view returns (bool) {\r\n        return userPhoneHashes[msg.sender] == phoneHash;\r\n    }\r\n\r\n    function addUser(address _userAddress, string memory _username, string memory _userID, bool sender) public onlyOwner {\r\n        require((sender && bytes(senderList[_userAddress].username).length == 0) ||\r\n            (bytes(receiverList[_userAddress].username).length == 0),\r\n            \"sender/user already exists\");\r\n\r\n        User memory new_user;\r\n        new_user.username = _username;\r\n        new_user.userID = _userID;\r\n        new_user.useraddress = _userAddress;\r\n\r\n        if (sender) {\r\n            senderList[_userAddress] = new_user;\r\n        } else {\r\n            userFromNameMap[_username] = new_user;\r\n            receiverList[_userAddress] = new_user;\r\n        }\r\n        \r\n        emit UserAdded(_userAddress, _username, _userID, sender);\r\n    }\r\n\r\n    function deleteUser(address _userAddress, bool sender) public onlyOwner {\r\n        require((sender && bytes(senderList[_userAddress].username).length != 0) ||\r\n            (bytes(receiverList[_userAddress].username).length != 0), \"user/sender does not exist\");\r\n\r\n        if (sender) {\r\n            delete senderList[_userAddress];\r\n        } else {\r\n            delete userFromNameMap[receiverList[_userAddress].username];\r\n            delete receiverList[_userAddress];\r\n        }\r\n        \r\n        emit UserDeleted(_userAddress, sender);\r\n    }\r\n\r\n    function verifyUser(address _userAddress, string memory _username, string memory _userID) public view returns (uint8) {\r\n        require((bytes(receiverList[_userAddress].username).length != 0) || (bytes(senderList[_userAddress].username).length != 0), \"User does not exist\");\r\n\r\n        if (keccak256(abi.encodePacked(receiverList[_userAddress].username)) == keccak256(abi.encodePacked(_username)) &&\r\n            keccak256(abi.encodePacked(receiverList[_userAddress].userID)) == keccak256(abi.encodePacked(_userID))) {\r\n            return 2;\r\n        } \r\n        if (keccak256(abi.encodePacked(senderList[_userAddress].username)) == keccak256(abi.encodePacked(_username)) &&\r\n            keccak256(abi.encodePacked(senderList[_userAddress].userID)) == keccak256(abi.encodePacked(_userID))) {\r\n            return 1;\r\n        }\r\n\r\n        return 0;\r\n    }\r\n\r\n    function addDocument(string memory _docname, string memory _ipfshash, string memory _docID, address _userAddress, string memory _symmkey) public {\r\n        require(bytes(senderList[msg.sender].username).length != 0, \"account used is not sender\");\r\n\r\n        Document memory new_doc;\r\n        new_doc.docname = _docname;\r\n        new_doc.ipfshash = _ipfshash;\r\n        new_doc.docID = _docID;\r\n        new_doc.symmkey=_symmkey;\r\n\r\n        docAccessList[_userAddress].push(new_doc);\r\n\r\n        emit DocumentAdded(msg.sender, _userAddress, _docname, _ipfshash, _docID);\r\n    }\r\n\r\n    function getDocCount(address _userAddress) public view returns (uint) {\r\n        return docAccessList[_userAddress].length;\r\n    }\r\n\r\n    function getDocuments(address _userAddress) public returns (string[] memory) {\r\n        if (msg.sender != _userAddress) {\r\n            emit AccessDenied(msg.sender, _userAddress, \"attempt to access denied\");\r\n            revert(\"attempt to access denied\");\r\n        }\r\n\r\n        uint docCount = docAccessList[_userAddress].length;\r\n        string[] memory docnames = new string[](docCount);\r\n\r\n        for (uint i = 0; i < docCount; i++) {\r\n            Document storage doc = docAccessList[_userAddress][i];\r\n            docnames[i] = doc.docname;\r\n        }\r\n\r\n        //emit DocumentAccessed(_userAddress, \"all documents\");\r\n        emit DocumentsListed(_userAddress, docnames);\r\n\r\n        return docnames;\r\n    }\r\n\r\n    function getDocumentFromDocname(address _userAddress, string memory _docname) public returns (Document memory) {\r\n        require(msg.sender == _userAddress, \"attempt to access denied\");\r\n        \r\n\r\n        Document[] storage documents = docAccessList[_userAddress];\r\n\r\n        for (uint i = 0; i < documents.length; i++) {\r\n            if (keccak256(abi.encodePacked(documents[i].docname)) == keccak256(abi.encodePacked(_docname))) {\r\n                emit DocumentAccessed(_userAddress, documents[i]);\r\n                //emit DocumentAccessedHash(_userAddress, documents[i].ipfshash);\r\n                return documents[i];\r\n            }\r\n        }\r\n\r\n        revert(\"Document ID not found\");\r\n    }\r\n}\r\n",
  "sourcePath": "C:\\Users\\alex_\\lawfer_root\\contracts\\Access_Control.sol",
  "compiler": {
    "name": "solc",
    "version": "0.5.16+commit.9c3226ce.Emscripten.clang"
  },
  "schemaVersion": "3.4.16",
  "updatedAt": "2024-07-25T02:47:20.501Z",
  "networkType": "ethereum",
  "devdoc": {
    "methods": {}
  },
  "userdoc": {
    "methods": {}
  }
}