{
  "contractName": "Access_Control",
  "abi": [
    {
      "inputs": [],
      "payable": false,
      "stateMutability": "nonpayable",
      "type": "constructor"
    },
    {
      "constant": true,
      "inputs": [],
      "name": "owner",
      "outputs": [
        {
          "internalType": "address",
          "name": "",
          "type": "address"
        }
      ],
      "payable": false,
      "stateMutability": "view",
      "type": "function"
    },
    {
      "constant": true,
      "inputs": [
        {
          "internalType": "address",
          "name": "add",
          "type": "address"
        }
      ],
      "name": "getuserList",
      "outputs": [
        {
          "internalType": "string",
          "name": "",
          "type": "string"
        },
        {
          "internalType": "string",
          "name": "",
          "type": "string"
        }
      ],
      "payable": false,
      "stateMutability": "view",
      "type": "function"
    },
    {
      "constant": false,
      "inputs": [
        {
          "internalType": "address",
          "name": "userAddress",
          "type": "address"
        },
        {
          "internalType": "string",
          "name": "username",
          "type": "string"
        },
        {
          "internalType": "string",
          "name": "userID",
          "type": "string"
        }
      ],
      "name": "addUser",
      "outputs": [],
      "payable": false,
      "stateMutability": "nonpayable",
      "type": "function"
    },
    {
      "constant": false,
      "inputs": [
        {
          "internalType": "address",
          "name": "userAddress",
          "type": "address"
        }
      ],
      "name": "deleteUser",
      "outputs": [],
      "payable": false,
      "stateMutability": "nonpayable",
      "type": "function"
    }
  ],
  "bytecode": "0x608060405234801561001057600080fd5b50336000806101000a81548173ffffffffffffffffffffffffffffffffffffffff021916908373ffffffffffffffffffffffffffffffffffffffff160217905550610b84806100606000396000f3fe608060405234801561001057600080fd5b506004361061004c5760003560e01c806321c7f28c146100515780635c60f2261461017a5780638da5cb5b146101be578063d7554a6814610208575b600080fd5b6100936004803603602081101561006757600080fd5b81019080803573ffffffffffffffffffffffffffffffffffffffff16906020019092919050505061037a565b604051808060200180602001838103835285818151815260200191508051906020019080838360005b838110156100d75780820151818401526020810190506100bc565b50505050905090810190601f1680156101045780820380516001836020036101000a031916815260200191505b50838103825284818151815260200191508051906020019080838360005b8381101561013d578082015181840152602081019050610122565b50505050905090810190601f16801561016a5780820380516001836020036101000a031916815260200191505b5094505050505060405180910390f35b6101bc6004803603602081101561019057600080fd5b81019080803573ffffffffffffffffffffffffffffffffffffffff169060200190929190505050610604565b005b6101c66107f8565b604051808273ffffffffffffffffffffffffffffffffffffffff1673ffffffffffffffffffffffffffffffffffffffff16815260200191505060405180910390f35b6103786004803603606081101561021e57600080fd5b81019080803573ffffffffffffffffffffffffffffffffffffffff1690602001909291908035906020019064010000000081111561025b57600080fd5b82018360208201111561026d57600080fd5b8035906020019184600183028401116401000000008311171561028f57600080fd5b91908080601f016020809104026020016040519081016040528093929190818152602001838380828437600081840152601f19601f820116905080830192505050505050509192919290803590602001906401000000008111156102f257600080fd5b82018360208201111561030457600080fd5b8035906020019184600183028401116401000000008311171561032657600080fd5b91908080601f016020809104026020016040519081016040528093929190818152602001838380828437600081840152601f19601f82011690508083019250505050505050919291929050505061081d565b005b6060806000809054906101000a900473ffffffffffffffffffffffffffffffffffffffff1673ffffffffffffffffffffffffffffffffffffffff163373ffffffffffffffffffffffffffffffffffffffff161461043f576040517f08c379a00000000000000000000000000000000000000000000000000000000081526004018080602001828103825260178152602001807f43616c6c6572206973206e6f7420746865206f776e657200000000000000000081525060200191505060405180910390fd5b600160008473ffffffffffffffffffffffffffffffffffffffff1673ffffffffffffffffffffffffffffffffffffffff168152602001908152602001600020600001600160008573ffffffffffffffffffffffffffffffffffffffff1673ffffffffffffffffffffffffffffffffffffffff168152602001908152602001600020600101818054600181600116156101000203166002900480601f0160208091040260200160405190810160405280929190818152602001828054600181600116156101000203166002900480156105585780601f1061052d57610100808354040283529160200191610558565b820191906000526020600020905b81548152906001019060200180831161053b57829003601f168201915b50505050509150808054600181600116156101000203166002900480601f0160208091040260200160405190810160405280929190818152602001828054600181600116156101000203166002900480156105f45780601f106105c9576101008083540402835291602001916105f4565b820191906000526020600020905b8154815290600101906020018083116105d757829003601f168201915b5050505050905091509150915091565b6000809054906101000a900473ffffffffffffffffffffffffffffffffffffffff1673ffffffffffffffffffffffffffffffffffffffff163373ffffffffffffffffffffffffffffffffffffffff16146106c6576040517f08c379a00000000000000000000000000000000000000000000000000000000081526004018080602001828103825260178152602001807f43616c6c6572206973206e6f7420746865206f776e657200000000000000000081525060200191505060405180910390fd5b6000600160008373ffffffffffffffffffffffffffffffffffffffff1673ffffffffffffffffffffffffffffffffffffffff1681526020019081526020016000206000018054600181600116156101000203166002900490501415610793576040517f08c379a00000000000000000000000000000000000000000000000000000000081526004018080602001828103825260138152602001807f5573657220646f6573206e6f742065786973740000000000000000000000000081525060200191505060405180910390fd5b600160008273ffffffffffffffffffffffffffffffffffffffff1673ffffffffffffffffffffffffffffffffffffffff168152602001908152602001600020600080820160006107e39190610a48565b6001820160006107f39190610a48565b505050565b6000809054906101000a900473ffffffffffffffffffffffffffffffffffffffff1681565b6000809054906101000a900473ffffffffffffffffffffffffffffffffffffffff1673ffffffffffffffffffffffffffffffffffffffff163373ffffffffffffffffffffffffffffffffffffffff16146108df576040517f08c379a00000000000000000000000000000000000000000000000000000000081526004018080602001828103825260178152602001807f43616c6c6572206973206e6f7420746865206f776e657200000000000000000081525060200191505060405180910390fd5b6000600160008573ffffffffffffffffffffffffffffffffffffffff1673ffffffffffffffffffffffffffffffffffffffff168152602001908152602001600020600001805460018160011615610100020316600290049050146109ab576040517f08c379a00000000000000000000000000000000000000000000000000000000081526004018080602001828103825260138152602001807f5573657220616c7265616479206578697374730000000000000000000000000081525060200191505060405180910390fd5b6109b3610a90565b82816000018190525081816020018190525080600160008673ffffffffffffffffffffffffffffffffffffffff1673ffffffffffffffffffffffffffffffffffffffff1681526020019081526020016000206000820151816000019080519060200190610a21929190610aaa565b506020820151816001019080519060200190610a3e929190610aaa565b5090505050505050565b50805460018160011615610100020316600290046000825580601f10610a6e5750610a8d565b601f016020900490600052602060002090810190610a8c9190610b2a565b5b50565b604051806040016040528060608152602001606081525090565b828054600181600116156101000203166002900490600052602060002090601f016020900481019282601f10610aeb57805160ff1916838001178555610b19565b82800160010185558215610b19579182015b82811115610b18578251825591602001919060010190610afd565b5b509050610b269190610b2a565b5090565b610b4c91905b80821115610b48576000816000905550600101610b30565b5090565b9056fea265627a7a7231582027be8e2b0ec9487d707c2e8da442ff9da148c55563b23703abb1d3dea777211964736f6c63430005100032",
  "source": "pragma solidity ^0.5.16;\r\n\r\ncontract Access_Control{\r\nstruct user{\r\nstring username;\r\nstring userID;\r\n}\r\naddress public owner;\r\nconstructor() public{\r\n    owner=msg.sender;\r\n}\r\n\r\n\r\n\r\nmodifier onlyOwner() {\r\n    require(msg.sender == owner, \"Caller is not the owner\");\r\n    _;\r\n}\r\nmapping(address=>user) userList;\r\nfunction getuserList(address add) public view onlyOwner returns(string memory, string memory){\r\n    return (userList[add].username, userList[add].userID);\r\n}\r\nfunction addUser(address userAddress, string memory username, string memory userID) public onlyOwner(){\r\n    require(bytes(userList[userAddress].username).length == 0, \"User already exists\");\r\n    user memory new_user;\r\n    new_user.username=username;\r\n    new_user.userID=userID;\r\n    userList[userAddress]=new_user;\r\n}\r\nfunction deleteUser(address userAddress) public onlyOwner()\r\n{\r\n    require(bytes(userList[userAddress].username).length != 0, \"User does not exist\");\r\n    delete userList[userAddress];\r\n}\r\n\r\n}",
  "sourcePath": "C:\\Users\\alex_\\lawfer_root\\contracts\\access_control.sol",
  "compiler": {
    "name": "solc",
    "version": "0.5.16+commit.9c3226ce.Emscripten.clang"
  },
  "schemaVersion": "3.4.16",
  "updatedAt": "2024-07-01T05:11:39.687Z",
  "devdoc": {
    "methods": {}
  },
  "userdoc": {
    "methods": {}
  }
}